{
  "contractName": "Fundraiser",
  "abi": [
    {
      "inputs": [
        {
          "internalType": "uint256",
          "name": "_amountToBeRaised",
          "type": "uint256"
        }
      ],
      "stateMutability": "nonpayable",
      "type": "constructor"
    },
    {
      "inputs": [],
      "name": "amountRaised",
      "outputs": [
        {
          "internalType": "uint256",
          "name": "",
          "type": "uint256"
        }
      ],
      "stateMutability": "view",
      "type": "function",
      "constant": true
    },
    {
      "inputs": [],
      "name": "amountToBeRaised",
      "outputs": [
        {
          "internalType": "uint256",
          "name": "",
          "type": "uint256"
        }
      ],
      "stateMutability": "view",
      "type": "function",
      "constant": true
    },
    {
      "inputs": [],
      "name": "hasEnded",
      "outputs": [
        {
          "internalType": "bool",
          "name": "",
          "type": "bool"
        }
      ],
      "stateMutability": "view",
      "type": "function",
      "constant": true
    },
    {
      "inputs": [],
      "name": "owner",
      "outputs": [
        {
          "internalType": "address payable",
          "name": "",
          "type": "address"
        }
      ],
      "stateMutability": "view",
      "type": "function",
      "constant": true
    },
    {
      "stateMutability": "payable",
      "type": "receive",
      "payable": true
    },
    {
      "inputs": [],
      "name": "donate",
      "outputs": [],
      "stateMutability": "payable",
      "type": "function",
      "payable": true
    },
    {
      "inputs": [],
      "name": "withdraw",
      "outputs": [],
      "stateMutability": "nonpayable",
      "type": "function"
    },
    {
      "inputs": [],
      "name": "endCampaign",
      "outputs": [],
      "stateMutability": "nonpayable",
      "type": "function"
    }
  ],
  "bytecode": "0x608060405234801561001057600080fd5b50604051610880380380610880833981810160405281019061003291906100d5565b336000806101000a81548173ffffffffffffffffffffffffffffffffffffffff021916908373ffffffffffffffffffffffffffffffffffffffff160217905550806001819055506000600360006101000a81548160ff02191690831515021790555050610102565b600080fd5b6000819050919050565b6100b28161009f565b81146100bd57600080fd5b50565b6000815190506100cf816100a9565b92915050565b6000602082840312156100eb576100ea61009a565b5b60006100f9848285016100c0565b91505092915050565b61076f806101116000396000f3fe6080604052600436106100745760003560e01c80638da5cb5b1161004e5780638da5cb5b146100d957806390f996f514610104578063ecb70fb71461012f578063ed88c68e1461015a5761007b565b80633ccfd60b1461008057806371aac7f9146100975780637b3e5e7b146100ae5761007b565b3661007b57005b600080fd5b34801561008c57600080fd5b50610095610164565b005b3480156100a357600080fd5b506100ac610293565b005b3480156100ba57600080fd5b506100c361033e565b6040516100d0919061041a565b60405180910390f35b3480156100e557600080fd5b506100ee610344565b6040516100fb9190610476565b60405180910390f35b34801561011057600080fd5b50610119610368565b604051610126919061041a565b60405180910390f35b34801561013b57600080fd5b5061014461036e565b60405161015191906104ac565b60405180910390f35b610162610381565b005b60008054906101000a900473ffffffffffffffffffffffffffffffffffffffff1673ffffffffffffffffffffffffffffffffffffffff163373ffffffffffffffffffffffffffffffffffffffff16146101f2576040517f08c379a00000000000000000000000000000000000000000000000000000000081526004016101e990610570565b60405180910390fd5b60011515600360009054906101000a900460ff16151514610248576040517f08c379a000000000000000000000000000000000000000000000000000000000815260040161023f90610602565b60405180910390fd5b3373ffffffffffffffffffffffffffffffffffffffff166108fc6002549081150290604051600060405180830381858888f19350505050158015610290573d6000803e3d6000fd5b50565b60008054906101000a900473ffffffffffffffffffffffffffffffffffffffff1673ffffffffffffffffffffffffffffffffffffffff163373ffffffffffffffffffffffffffffffffffffffff1614610321576040517f08c379a000000000000000000000000000000000000000000000000000000000815260040161031890610570565b60405180910390fd5b6001600360006101000a81548160ff021916908315150217905550565b60025481565b60008054906101000a900473ffffffffffffffffffffffffffffffffffffffff1681565b60015481565b600360009054906101000a900460ff1681565b60001515600360009054906101000a900460ff1615151480156103a75750600154600254105b6103e6576040517f08c379a00000000000000000000000000000000000000000000000000000000081526004016103dd90610694565b60405180910390fd5b34600260008282546103f891906106e3565b92505081905550565b6000819050919050565b61041481610401565b82525050565b600060208201905061042f600083018461040b565b92915050565b600073ffffffffffffffffffffffffffffffffffffffff82169050919050565b600061046082610435565b9050919050565b61047081610455565b82525050565b600060208201905061048b6000830184610467565b92915050565b60008115159050919050565b6104a681610491565b82525050565b60006020820190506104c1600083018461049d565b92915050565b600082825260208201905092915050565b7f546869732066756e6374696f6e2063616e206f6e6c7920626520706572666f7260008201527f6d656420627920746865206f776e6572206f66207468697320636f6e7472616360208201527f7400000000000000000000000000000000000000000000000000000000000000604082015250565b600061055a6041836104c7565b9150610565826104d8565b606082019050919050565b600060208201905081810360008301526105898161054d565b9050919050565b7f546869732066756e6374696f6e2063616e6e6f742062652063616c6c6564207560008201527f6e74696c207468652066756e6472616973696e67206973206f76657200000000602082015250565b60006105ec603c836104c7565b91506105f782610590565b604082019050919050565b6000602082019050818103600083015261061b816105df565b9050919050565b7f5468697320636f6e74726163742063616e206e6f206c6f6e676572207265636560008201527f69766520646f6e6174696f6e7300000000000000000000000000000000000000602082015250565b600061067e602d836104c7565b915061068982610622565b604082019050919050565b600060208201905081810360008301526106ad81610671565b9050919050565b7f4e487b7100000000000000000000000000000000000000000000000000000000600052601160045260246000fd5b60006106ee82610401565b91506106f983610401565b9250827fffffffffffffffffffffffffffffffffffffffffffffffffffffffffffffffff0382111561072e5761072d6106b4565b5b82820190509291505056fea2646970667358221220533dbb2dee6f1a00447c40fd9f452179c3795c97a29aed2a5371795580d5ef5a64736f6c634300080b0033",
  "immutableReferences": {},
  "source": "// SPDX-License-Identifier: MIT\r\npragma solidity ^0.8.1;\r\n\r\ncontract Fundraiser{\r\n    address payable public owner;\r\n    uint public amountToBeRaised;\r\n    uint public amountRaised;\r\n    bool public hasEnded;\r\n\r\n    constructor(uint _amountToBeRaised) {\r\n        owner = payable(msg.sender);\r\n        amountToBeRaised = _amountToBeRaised;\r\n        hasEnded = false;\r\n    }\r\n\r\n    // only dev can carry out this function\r\n    modifier onlyOwner{\r\n        require(msg.sender == owner, \"This function can only be performed by the owner of this contract\");\r\n        _;\r\n    }\r\n\r\n    // this function can only be called after campaign has ended\r\n    modifier campaignHasEnded{\r\n        require(hasEnded == true, \"This function cannot be called until the fundraising is over\");\r\n        _;\r\n    }\r\n\r\n    // this modifier specifies criterions for accepting ether\r\n    modifier canReceiveDonation{\r\n        require(hasEnded == false && amountRaised < amountToBeRaised, \"This contract can no longer receive donations\");\r\n        _;\r\n    }\r\n\r\n    receive() external payable{}\r\n\r\n    function donate() external payable canReceiveDonation{\r\n        amountRaised += msg.value;\r\n    }\r\n\r\n    // this function withdraws all the contract funds\r\n    function withdraw() external onlyOwner campaignHasEnded{\r\n        payable(msg.sender).transfer(amountRaised);\r\n    }\r\n\r\n    // this contract ends the campaign\r\n    function endCampaign() external onlyOwner{\r\n        hasEnded = true;\r\n    }\r\n}",
  "sourcePath": "C:\\Users\\Nnam Darlington\\Desktop\\programming\\programming tutorials\\Blockchain Dev\\Projects\\ico\\contracts\\Fundraiser.sol",
  "compiler": {
    "name": "solc",
    "version": "0.8.11+commit.d7f03943.Emscripten.clang"
  },
  "schemaVersion": "3.4.5",
  "updatedAt": "2022-03-08T14:02:44.047Z",
  "networkType": "ethereum",
  "devdoc": {
    "kind": "dev",
    "methods": {},
    "version": 1
  },
  "userdoc": {
    "kind": "user",
    "methods": {},
    "version": 1
  }
}